{
  "_format": "hh-sol-artifact-1",
  "contractName": "ABCall_Store_HASH_G3",
  "sourceName": "contracts/ABCall.sol",
  "abi": [
    {
      "inputs": [
        {
          "internalType": "uint256",
          "name": "_index",
          "type": "uint256"
        }
      ],
      "name": "getHash",
      "outputs": [
        {
          "internalType": "bytes32",
          "name": "",
          "type": "bytes32"
        }
      ],
      "stateMutability": "view",
      "type": "function"
    },
    {
      "inputs": [],
      "name": "hashCount",
      "outputs": [
        {
          "internalType": "uint256",
          "name": "",
          "type": "uint256"
        }
      ],
      "stateMutability": "view",
      "type": "function"
    },
    {
      "inputs": [
        {
          "internalType": "uint256",
          "name": "",
          "type": "uint256"
        }
      ],
      "name": "hashes",
      "outputs": [
        {
          "internalType": "bytes32",
          "name": "",
          "type": "bytes32"
        }
      ],
      "stateMutability": "view",
      "type": "function"
    },
    {
      "inputs": [
        {
          "internalType": "bytes32",
          "name": "_hash",
          "type": "bytes32"
        }
      ],
      "name": "storeHash",
      "outputs": [],
      "stateMutability": "nonpayable",
      "type": "function"
    }
  ],
  "bytecode": "0x6080604052348015600f57600080fd5b506103e68061001f6000396000f3fe608060405234801561001057600080fd5b506004361061004c5760003560e01c8063501895ae146100515780635bebd9d7146100815780636b2fafa91461009f5780637fe88885146100cf575b600080fd5b61006b600480360381019061006691906101d8565b6100eb565b604051610078919061021e565b60405180910390f35b610089610103565b6040516100969190610248565b60405180910390f35b6100b960048036038101906100b491906101d8565b610109565b6040516100c6919061021e565b60405180910390f35b6100e960048036038101906100e4919061028f565b610169565b005b60006020528060005260406000206000915090505481565b60015481565b6000600154821061014f576040517f08c379a000000000000000000000000000000000000000000000000000000000815260040161014690610319565b60405180910390fd5b600080838152602001908152602001600020549050919050565b806000806001548152602001908152602001600020819055506001600081548092919061019590610368565b919050555050565b600080fd5b6000819050919050565b6101b5816101a2565b81146101c057600080fd5b50565b6000813590506101d2816101ac565b92915050565b6000602082840312156101ee576101ed61019d565b5b60006101fc848285016101c3565b91505092915050565b6000819050919050565b61021881610205565b82525050565b6000602082019050610233600083018461020f565b92915050565b610242816101a2565b82525050565b600060208201905061025d6000830184610239565b92915050565b61026c81610205565b811461027757600080fd5b50565b60008135905061028981610263565b92915050565b6000602082840312156102a5576102a461019d565b5b60006102b38482850161027a565b91505092915050565b600082825260208201905092915050565b7f496e646578206f7574206f6620626f756e647300000000000000000000000000600082015250565b60006103036013836102bc565b915061030e826102cd565b602082019050919050565b60006020820190508181036000830152610332816102f6565b9050919050565b7f4e487b7100000000000000000000000000000000000000000000000000000000600052601160045260246000fd5b6000610373826101a2565b91507fffffffffffffffffffffffffffffffffffffffffffffffffffffffffffffffff82036103a5576103a4610339565b5b60018201905091905056fea2646970667358221220feeec6befadf7eba449bd6569c7b0988da6e447fb9e67abccf7199f54ca2972664736f6c634300081b0033",
  "linkReferences": {},
  "deployedLinkReferences": {}
}