{"contracts/ABCall.sol":{"ABCall_Store_HASH_G3":{"abi":[{"inputs":[{"internalType":"uint256","name":"_index","type":"uint256"}],"name":"getHash","outputs":[{"internalType":"bytes32","name":"","type":"bytes32"}],"stateMutability":"view","type":"function"},{"inputs":[],"name":"hashCount","outputs":[{"internalType":"uint256","name":"","type":"uint256"}],"stateMutability":"view","type":"function"},{"inputs":[{"internalType":"uint256","name":"","type":"uint256"}],"name":"hashes","outputs":[{"internalType":"bytes32","name":"","type":"bytes32"}],"stateMutability":"view","type":"function"},{"inputs":[{"internalType":"bytes32","name":"_hash","type":"bytes32"}],"name":"storeHash","outputs":[],"stateMutability":"nonpayable","type":"function"}],"evm":{"bytecode":{"linkReferences":{},"object":"6080604052348015600f57600080fd5b506103e68061001f6000396000f3fe608060405234801561001057600080fd5b506004361061004c5760003560e01c8063501895ae146100515780635bebd9d7146100815780636b2fafa91461009f5780637fe88885146100cf575b600080fd5b61006b600480360381019061006691906101d8565b6100eb565b604051610078919061021e565b60405180910390f35b610089610103565b6040516100969190610248565b60405180910390f35b6100b960048036038101906100b491906101d8565b610109565b6040516100c6919061021e565b60405180910390f35b6100e960048036038101906100e4919061028f565b610169565b005b60006020528060005260406000206000915090505481565b60015481565b6000600154821061014f576040517f08c379a000000000000000000000000000000000000000000000000000000000815260040161014690610319565b60405180910390fd5b600080838152602001908152602001600020549050919050565b806000806001548152602001908152602001600020819055506001600081548092919061019590610368565b919050555050565b600080fd5b6000819050919050565b6101b5816101a2565b81146101c057600080fd5b50565b6000813590506101d2816101ac565b92915050565b6000602082840312156101ee576101ed61019d565b5b60006101fc848285016101c3565b91505092915050565b6000819050919050565b61021881610205565b82525050565b6000602082019050610233600083018461020f565b92915050565b610242816101a2565b82525050565b600060208201905061025d6000830184610239565b92915050565b61026c81610205565b811461027757600080fd5b50565b60008135905061028981610263565b92915050565b6000602082840312156102a5576102a461019d565b5b60006102b38482850161027a565b91505092915050565b600082825260208201905092915050565b7f496e646578206f7574206f6620626f756e647300000000000000000000000000600082015250565b60006103036013836102bc565b915061030e826102cd565b602082019050919050565b60006020820190508181036000830152610332816102f6565b9050919050565b7f4e487b7100000000000000000000000000000000000000000000000000000000600052601160045260246000fd5b6000610373826101a2565b91507fffffffffffffffffffffffffffffffffffffffffffffffffffffffffffffffff82036103a5576103a4610339565b5b60018201905091905056fea2646970667358221220feeec6befadf7eba449bd6569c7b0988da6e447fb9e67abccf7199f54ca2972664736f6c634300081b0033","opcodes":"PUSH1 0x80 PUSH1 0x40 MSTORE CALLVALUE DUP1 ISZERO PUSH1 0xF JUMPI PUSH1 0x0 DUP1 REVERT JUMPDEST POP PUSH2 0x3E6 DUP1 PUSH2 0x1F PUSH1 0x0 CODECOPY PUSH1 0x0 RETURN INVALID PUSH1 0x80 PUSH1 0x40 MSTORE CALLVALUE DUP1 ISZERO PUSH2 0x10 JUMPI PUSH1 0x0 DUP1 REVERT JUMPDEST POP PUSH1 0x4 CALLDATASIZE LT PUSH2 0x4C JUMPI PUSH1 0x0 CALLDATALOAD PUSH1 0xE0 SHR DUP1 PUSH4 0x501895AE EQ PUSH2 0x51 JUMPI DUP1 PUSH4 0x5BEBD9D7 EQ PUSH2 0x81 JUMPI DUP1 PUSH4 0x6B2FAFA9 EQ PUSH2 0x9F JUMPI DUP1 PUSH4 0x7FE88885 EQ PUSH2 0xCF JUMPI JUMPDEST PUSH1 0x0 DUP1 REVERT JUMPDEST PUSH2 0x6B PUSH1 0x4 DUP1 CALLDATASIZE SUB DUP2 ADD SWAP1 PUSH2 0x66 SWAP2 SWAP1 PUSH2 0x1D8 JUMP JUMPDEST PUSH2 0xEB JUMP JUMPDEST PUSH1 0x40 MLOAD PUSH2 0x78 SWAP2 SWAP1 PUSH2 0x21E JUMP JUMPDEST PUSH1 0x40 MLOAD DUP1 SWAP2 SUB SWAP1 RETURN JUMPDEST PUSH2 0x89 PUSH2 0x103 JUMP JUMPDEST PUSH1 0x40 MLOAD PUSH2 0x96 SWAP2 SWAP1 PUSH2 0x248 JUMP JUMPDEST PUSH1 0x40 MLOAD DUP1 SWAP2 SUB SWAP1 RETURN JUMPDEST PUSH2 0xB9 PUSH1 0x4 DUP1 CALLDATASIZE SUB DUP2 ADD SWAP1 PUSH2 0xB4 SWAP2 SWAP1 PUSH2 0x1D8 JUMP JUMPDEST PUSH2 0x109 JUMP JUMPDEST PUSH1 0x40 MLOAD PUSH2 0xC6 SWAP2 SWAP1 PUSH2 0x21E JUMP JUMPDEST PUSH1 0x40 MLOAD DUP1 SWAP2 SUB SWAP1 RETURN JUMPDEST PUSH2 0xE9 PUSH1 0x4 DUP1 CALLDATASIZE SUB DUP2 ADD SWAP1 PUSH2 0xE4 SWAP2 SWAP1 PUSH2 0x28F JUMP JUMPDEST PUSH2 0x169 JUMP JUMPDEST STOP JUMPDEST PUSH1 0x0 PUSH1 0x20 MSTORE DUP1 PUSH1 0x0 MSTORE PUSH1 0x40 PUSH1 0x0 KECCAK256 PUSH1 0x0 SWAP2 POP SWAP1 POP SLOAD DUP2 JUMP JUMPDEST PUSH1 0x1 SLOAD DUP2 JUMP JUMPDEST PUSH1 0x0 PUSH1 0x1 SLOAD DUP3 LT PUSH2 0x14F JUMPI PUSH1 0x40 MLOAD PUSH32 0x8C379A000000000000000000000000000000000000000000000000000000000 DUP2 MSTORE PUSH1 0x4 ADD PUSH2 0x146 SWAP1 PUSH2 0x319 JUMP JUMPDEST PUSH1 0x40 MLOAD DUP1 SWAP2 SUB SWAP1 REVERT JUMPDEST PUSH1 0x0 DUP1 DUP4 DUP2 MSTORE PUSH1 0x20 ADD SWAP1 DUP2 MSTORE PUSH1 0x20 ADD PUSH1 0x0 KECCAK256 SLOAD SWAP1 POP SWAP2 SWAP1 POP JUMP JUMPDEST DUP1 PUSH1 0x0 DUP1 PUSH1 0x1 SLOAD DUP2 MSTORE PUSH1 0x20 ADD SWAP1 DUP2 MSTORE PUSH1 0x20 ADD PUSH1 0x0 KECCAK256 DUP2 SWAP1 SSTORE POP PUSH1 0x1 PUSH1 0x0 DUP2 SLOAD DUP1 SWAP3 SWAP2 SWAP1 PUSH2 0x195 SWAP1 PUSH2 0x368 JUMP JUMPDEST SWAP2 SWAP1 POP SSTORE POP POP JUMP JUMPDEST PUSH1 0x0 DUP1 REVERT JUMPDEST PUSH1 0x0 DUP2 SWAP1 POP SWAP2 SWAP1 POP JUMP JUMPDEST PUSH2 0x1B5 DUP2 PUSH2 0x1A2 JUMP JUMPDEST DUP2 EQ PUSH2 0x1C0 JUMPI PUSH1 0x0 DUP1 REVERT JUMPDEST POP JUMP JUMPDEST PUSH1 0x0 DUP2 CALLDATALOAD SWAP1 POP PUSH2 0x1D2 DUP2 PUSH2 0x1AC JUMP JUMPDEST SWAP3 SWAP2 POP POP JUMP JUMPDEST PUSH1 0x0 PUSH1 0x20 DUP3 DUP5 SUB SLT ISZERO PUSH2 0x1EE JUMPI PUSH2 0x1ED PUSH2 0x19D JUMP JUMPDEST JUMPDEST PUSH1 0x0 PUSH2 0x1FC DUP5 DUP3 DUP6 ADD PUSH2 0x1C3 JUMP JUMPDEST SWAP2 POP POP SWAP3 SWAP2 POP POP JUMP JUMPDEST PUSH1 0x0 DUP2 SWAP1 POP SWAP2 SWAP1 POP JUMP JUMPDEST PUSH2 0x218 DUP2 PUSH2 0x205 JUMP JUMPDEST DUP3 MSTORE POP POP JUMP JUMPDEST PUSH1 0x0 PUSH1 0x20 DUP3 ADD SWAP1 POP PUSH2 0x233 PUSH1 0x0 DUP4 ADD DUP5 PUSH2 0x20F JUMP JUMPDEST SWAP3 SWAP2 POP POP JUMP JUMPDEST PUSH2 0x242 DUP2 PUSH2 0x1A2 JUMP JUMPDEST DUP3 MSTORE POP POP JUMP JUMPDEST PUSH1 0x0 PUSH1 0x20 DUP3 ADD SWAP1 POP PUSH2 0x25D PUSH1 0x0 DUP4 ADD DUP5 PUSH2 0x239 JUMP JUMPDEST SWAP3 SWAP2 POP POP JUMP JUMPDEST PUSH2 0x26C DUP2 PUSH2 0x205 JUMP JUMPDEST DUP2 EQ PUSH2 0x277 JUMPI PUSH1 0x0 DUP1 REVERT JUMPDEST POP JUMP JUMPDEST PUSH1 0x0 DUP2 CALLDATALOAD SWAP1 POP PUSH2 0x289 DUP2 PUSH2 0x263 JUMP JUMPDEST SWAP3 SWAP2 POP POP JUMP JUMPDEST PUSH1 0x0 PUSH1 0x20 DUP3 DUP5 SUB SLT ISZERO PUSH2 0x2A5 JUMPI PUSH2 0x2A4 PUSH2 0x19D JUMP JUMPDEST JUMPDEST PUSH1 0x0 PUSH2 0x2B3 DUP5 DUP3 DUP6 ADD PUSH2 0x27A JUMP JUMPDEST SWAP2 POP POP SWAP3 SWAP2 POP POP JUMP JUMPDEST PUSH1 0x0 DUP3 DUP3 MSTORE PUSH1 0x20 DUP3 ADD SWAP1 POP SWAP3 SWAP2 POP POP JUMP JUMPDEST PUSH32 0x496E646578206F7574206F6620626F756E647300000000000000000000000000 PUSH1 0x0 DUP3 ADD MSTORE POP JUMP JUMPDEST PUSH1 0x0 PUSH2 0x303 PUSH1 0x13 DUP4 PUSH2 0x2BC JUMP JUMPDEST SWAP2 POP PUSH2 0x30E DUP3 PUSH2 0x2CD JUMP JUMPDEST PUSH1 0x20 DUP3 ADD SWAP1 POP SWAP2 SWAP1 POP JUMP JUMPDEST PUSH1 0x0 PUSH1 0x20 DUP3 ADD SWAP1 POP DUP2 DUP2 SUB PUSH1 0x0 DUP4 ADD MSTORE PUSH2 0x332 DUP2 PUSH2 0x2F6 JUMP JUMPDEST SWAP1 POP SWAP2 SWAP1 POP JUMP JUMPDEST PUSH32 0x4E487B7100000000000000000000000000000000000000000000000000000000 PUSH1 0x0 MSTORE PUSH1 0x11 PUSH1 0x4 MSTORE PUSH1 0x24 PUSH1 0x0 REVERT JUMPDEST PUSH1 0x0 PUSH2 0x373 DUP3 PUSH2 0x1A2 JUMP JUMPDEST SWAP2 POP PUSH32 0xFFFFFFFFFFFFFFFFFFFFFFFFFFFFFFFFFFFFFFFFFFFFFFFFFFFFFFFFFFFFFFFF DUP3 SUB PUSH2 0x3A5 JUMPI PUSH2 0x3A4 PUSH2 0x339 JUMP JUMPDEST JUMPDEST PUSH1 0x1 DUP3 ADD SWAP1 POP SWAP2 SWAP1 POP JUMP INVALID LOG2 PUSH5 0x6970667358 0x22 SLT KECCAK256 INVALID 0xEE 0xC6 0xBE STATICCALL 0xDF PUSH31 0xBA449BD6569C7B0988DA6E447FB9E67ABCCF7199F54CA2972664736F6C6343 STOP ADDMOD SHL STOP CALLER "},"methodIdentifiers":{"getHash(uint256)":"6b2fafa9","hashCount()":"5bebd9d7","hashes(uint256)":"501895ae","storeHash(bytes32)":"7fe88885"}}}}}